S00E00005765656B20332E7372656337
S113000045C0000053C0000051C000004FC00000B4
S11300104DC000004BC0000049C0000047C00000B4
S113002045C0000044C0000041C000003FC00000C3
S11300303DC000003BC0000039C0000037C00000D4
S113004035C0000033C0000031C000002FC00000E4
S11300502DC000002BC0000029C0000027C00000F4
S113006025C0000023C0000021C000001FC0000004
S11300701DC000001BC0000019C0000017C0000014
S113008015C0000013C0000011C0000011241FBEE1
S1130090CFEFD0E1DEBFCDBF21E0A0E0B1E001C0F1
S11300A01D92A230B207E1F734D067C0A9CF1F92E6
S11300B00F920FB60F9211242F938F939F938091D9
S11300C00001909101010196909301018093000138
S11300D08639910511F480E882BB809100019091EA
S11300E001018039914029F412BA10920101109251
S11300F000019F918F912F910F900FBE0F901F9031
S113010018958AEF83BD80E887BF78948DE085BD1C
S113011008951BD0CFEFC4BBF4DF11BAC7BB8FE186
S11301209EE40197F1F700C00000F9CFAB9A8FEC81
S113013097E00197F1F700C00000AB988FEC97E0CF
S11301400197F1F700C000000895CF938FEF84BBAF
S113015015BAC0E2C5BBEADFC5BBE8DF80E885BBF2
S1130160E5DF15BAE3DF80EF85BBE0DF15BADEDF3C
S111017080E685BBDBDFCF910895F894FFCFC6
S9030000FC
