S01400003878384C65644D61747269782E737265639E
S113000045C0000060C000005EC000005CC000008D
S11300105AC0000058C0000056C0000054C0000080
S113002052C0000050C000004EC000004CC0000090
S11300304AC0000048C0000046C0000044C00000A0
S113004042C0000040C000003EC000003CC00000B0
S11300503AC0000038C0000036C0000034C00000C0
S113006032C0000030C000002EC000002CC00000D0
S11300702AC0000028C0000026C0000024C00000E0
S113008022C0000020C000001EC0000011241FBEBA
S1130090CFEFD0E1DEBFCDBF11E0A0E0B1E0EEE2F2
S11300A0F4E000E00BBF02C007900D92A43CB1073E
S11300B0D9F721E0A4ECB1E001C01D92A43CB20741
S11300C0E1F7D6D0B2C19CCF1092710080E2809348
S11300D07000089584EA80937400E4E7F0E080817E
S11300E08823ECF708958093730084E88093740068
S11300F0E4E7F0E080818823ECF7089518161906E8
S11301006CF420E030E0EFECF7E03197F1F700C059
S113011000002F5F3F4F28173907A9F708950F9361
S11301201F93CF93DF93C0E004E710E0D4E9D2DF5C
S113013080EED9DF8C2FD7DF80E0D5DFF801D083C4
S1130140CE5FC031A1F7DF91CF911F910F91089538
S11301501F93CF93DF93BEDF80EEC5DF81E2C3DF61
S1130160C4E7D0E014E91883B5DF80EEBCDF80EA91
S1130170BADF1883AFDF80EEB6DF83EEB4DF188317
S1130180A9DF80EEB0DF81E8AEDF1883DF91CF9185
S11301901F9108955F926F927F928F929F92AF9278
S11301A0BF92CF92DF92EF92FF920F931F93CF9360
S11301B0DF93EB01CC0FDD1FC80FD91F912C0F2E3D
S11301C0F4E76F2E712CF02D0F2EF4E98F2EF02D05
S11301D01881598022967EDF80EE85DF892D83DFAA
S11301E0212F952D990F990B6894AA24A1F868944E
S11301F0BB24B1F86894CC24C1F86894DD24D1F808
S11302006894EE24E1F8F12C00E010E0352D492F3C
S1130210592F692F792F892F4AD020713072427457
S1130220547868707170AA24AA940F2EF3E0BF2E3C
S1130230F02DC12CD12CE12C80E090E089D0822FCC
S113024052DFF301808293949394F0E19F12C0CF24
S1130250DF91CF911F910F91FF90EF90DF90CF909E
S1130260BF90AF909F908F907F906F905F90089514
S11302702BDF6EDF54DF8AEF90E040DF50DF60E079
S113028070E080E091E086DFC1E0D0E000E010E0C3
S11302908AEF90E033DF43DFBE0180E091E07ADF54
S11302A02196CB35D105A4F3C02FD12FF1CFDF9305
S11302B0CF931F930F939A9DF02D219FF00D8B9D4B
S11302C0F00D8A9DE02DF10D039FF00D029FE00DCE
S11302D0F11D4E9DE00DF11D5E9DF00D4F9DF00D45
S11302E07F936F93BF92AF925F934F93D5018ED05C
S11302F08B01AC01D7018AD0EB01E80FF91FD601BD
S11303001FD02F913F91D60181D0C60FD71FE81F70
S1130310F91FAF91BF9114D02F913F9177D0C60FA1
S1130320D71FE81FF91FD60171D0E60FF71F9801F8
S1130330BE01CF0111240F911F91CF91DF91089538
S113034065D0460F571FC81FD91F08F4319608956A
S1130350689401C0E8948F929F92CF93DF9305D065
S1130360DF91CF919F908F90089588249924F40170
S1130370E401B0E49F93AA279A158B049C04ED052D
S1130380FE05CF05D007A10798F4AD2FDC2FCF2FA2
S1130390FE2FE92D982C892E982F872F762F652FE5
S11303A0542F432F322F2227B85031F7BF9127C043
S11303B01B2EBF91BB27220F331F441F551F661FDF
S11303C0771F881F991F881C991CEE1FFF1FCC1FC5
S11303D0DD1FAA1FBB1F8A149B04EC05FD05CE0577
S11303E0DF05A007B10748F08A189B08EC09FD094E
S11303F0CE09DF09A00BB10B21601A94E1F62EF4AB
S11304009401AF01BE01CD01000C0895A29FB0017B
S1130410B39FC001A39F700D811D1124911DB29F34
S1110420700D811D1124911D0895F894FFCFD5
S113042E00003C0066006E007600660066003C002C
S113043E0000000000001800180038001800180012
S113044E18007E000000000000003C00660006005C
S113045E0C00300060007E000000000000003C0034
S113046E660006001C00060066003C00000000004A
S113047E00000C001C002C004C007E000C000C0034
S113048E0000000000007E0060007C0006000600F4
S113049E66003C000000000000003C0066006000A6
S11304AE7C00660066003C000000000000007E0038
S11304BE66000C000C001800180018000000000064
S11304CE00003C00660066003C00660066003C00CE
S11304DE0000000000003C00660066003E000600BE
S10704EE66003C0064
S9030000FC
