S01400003878384C65644D61747269782E737265639E
S113000045C0000060C000005EC000005CC000008D
S11300105AC0000058C0000056C0000054C0000080
S113002052C0000050C000004EC000004CC0000090
S11300304AC0000048C0000046C0000044C00000A0
S113004042C0000040C000003EC000003CC00000B0
S11300503AC0000038C0000036C0000034C00000C0
S113006032C0000030C000002EC000002CC00000D0
S11300702AC0000028C0000026C0000024C00000E0
S113008022C0000020C000001EC0000011241FBEBA
S1130090CFEFD0E1DEBFCDBF13E0A0E0B1E0E0EEF2
S11300A0F4E000E00BBF02C007900D92AC36B1073C
S11300B0D9F725E0ACE6B3E001C01D92A63CB20737
S11300C0E1F71ED10BC29CCF1092710080E28093A5
S11300D07000089584EA80937400E4E7F0E080817E
S11300E08823ECF708958093730084E88093740068
S11300F0E4E7F0E080818823ECF7089518161906E8
S11301006CF420E030E0EFECF7E03197F1F700C059
S113011000002F5F3F4F28173907A9F708950F9361
S11301201F93CF93DF93C0E004E710E0D4E9D2DF5C
S113013080EED9DF8C2FD7DF80E0D5DFF801D083C4
S1130140CE5FC031A1F7DF91CF911F910F91089538
S11301501F93CF93DF93BEDF80EEC5DF81E2C3DF61
S1130160C4E7D0E014E91883B5DF80EEBCDF80EA91
S1130170BADF1883AFDF80EEB6DF83EEB4DF188317
S1130180A9DF80EEB0DF81E8AEDF1883DF91CF9185
S11301901F9108955F926F927F928F929F92AF9278
S11301A0BF92CF92DF92EF92FF920F931F93CF9360
S11301B0DF93EB01CC0FDD1FC80FD91F912C0F2E3D
S11301C0F4E76F2E712CF02D0F2EF4E98F2EF02D05
S11301D01881598022967EDF80EE85DF892D83DFAA
S11301E0212F952D990F990B6894AA24A1F868944E
S11301F0BB24B1F86894CC24C1F86894DD24D1F808
S11302006894EE24E1F8F12C00E010E0352D492F3C
S1130210592F692F792F892FA3D0207130724274FE
S1130220547868707170AA24AA940F2EF3E0BF2E3C
S1130230F02DC12CD12CE12C80E090E0E2D0822F73
S113024052DFF301808293949394F0E19F12C0CF24
S1130250DF91CF911F910F91FF90EF90DF90CF909E
S1130260BF90AF909F908F907F906F905F90089514
S113027040916C0350916D0382959295907F9827DD
S1130280807F9827FC01E050FF4FDA01AA0FBB1FC3
S1130290A259BC4F805F9E4F219131912D933D9384
S11302A0E817F907C9F7485F5F4F50936D03409310
S11302B06C03089580916C0390916D03FC01EE0F23
S11302C0FF1FE259FC4F11821082019690936D0337
S11302D080936C030895CF93DF93EC018881998117
S11302E08F3F2FEF920749F02296C2DFE3DF899117
S11302F099918F3F2FEF9207C1F7DF91CF91089526
S1130300CF93DF93CDB7DEB76C970FB6F894DEBF0B
S11303100FBECDBFD9DE1CDF02DF8CE1E0E5F3E0E8
S1130320DE01119601900D928A95E1F7CE010196B6
S1130330D2DF00E010E0E12CF12CB8018EE693E06E
S113034029DF0F5F1F4F80916C0390916D03081795
S1130350190714F00E2D1F2D88EC90E0CFDEEDCFA1
S1130360DF93CF931F930F939A9DF02D219FF00D50
S11303708B9DF00D8A9DE02DF10D039FF00D029FE2
S1130380E00DF11D4E9DE00DF11D5E9DF00D4F9DA4
S1130390F00D7F936F93BF92AF925F934F93D5010C
S11303A08ED08B01AC01D7018AD0EB01E80FF91F85
S11303B0D6011FD02F913F91D60181D0C60FD71FF0
S11303C0E81FF91FAF91BF9114D02F913F9177D0BF
S11303D0C60FD71FE81FF91FD60171D0E60FF71F0C
S11303E09801BE01CF0111240F911F91CF91DF918C
S11303F0089565D0460F571FC81FD91F08F43196BA
S11304000895689401C0E8948F929F92CF93DF93EC
S113041005D0DF91CF919F908F90089588249924DF
S1130420F401E401B0E49F93AA279A158B049C0479
S1130430ED05FE05CF05D007A10798F4AD2FDC2FFD
S1130440CF2FFE2FE92D982C892E982F872F762FCA
S1130450652F542F432F322F2227B85031F7BF91E5
S113046027C01B2EBF91BB27220F331F441F551FCC
S1130470661F771F881F991F881C991CEE1FFF1F7A
S1130480CC1FDD1FAA1FBB1F8A149B04EC05FD05AE
S1130490CE05DF05A007B10748F08A189B08EC09D0
S11304A0FD09CE09DF09A00BB10B21601A94E1F616
S11304B02EF49401AF01BE01CD01000C0895A29F5A
S11304C0B001B39FC001A39F700D811D1124911D24
S11304D0B29F700D811D1124911D0895F894FFCFD2
S11304E000007800CC00CC00FC00CC00CC00CC0098
S11304F00000F800CC00CC00F800CC00CC00F800E0
S113050000007800CC00C000C000C000CC0078001F
S11305100000F800CC00CC00CC00CC00CC00F800EB
S11305200000FC00C000C000F800C000C000FC00D7
S11305300000FC00C000C000F800C000C000C00003
S113054000007800CC00C000C000DC00CC007800C3
S11305500000CC00CC00CC00FC00CC00CC00CC00D3
S113056000007800300030003000300030007800A7
S113057000003C00180018001800D800D8007000D3
S11305800000CC00D800F000E000F000D800CC005F
S11305900000C000C000C000C000C000C000FC00DB
S11305A00000C600EE00FE00D600C600C600C6006D
S11305B00000C600E600F600DE00CE00C600C6005D
S11305C000007800CC00CC00CC00CC00CC0078003B
S11305D00000F800CC00CC00CC00F800C000C00043
S11305E000007800CC00CC00CC00DC0078000C00CB
S11305F00000F800CC00CC00F800F000D800CC00DB
S113060000007800CC00C00078000C00CC0078001A
S11306100000FC00B4003000300030003000300036
S11306200000CC00CC00CC00CC00CC00CC007C0082
S11306300000CC00CC00CC00CC00CC007800300012
S11306400000C600C600C600D600FE00EE00C600CC
S11306500000C600C6006C0038006C00C600C6006E
S11306600000CC00CC00CC0078003000300030001A
S11306700000FC000C00180030006000C000FC000A
S113068000007800CC00DC00EC00CC00CC0078004A
S11306900000300030007000300030003000FC00FA
S11306A000007800CC000C0018006000C000FC00C2
S11306B000007800CC000C0038000C00CC0078005E
S11306C000001800380058009800FC0018001800BA
S11306D00000FC00C000F8000C000C00CC00780006
S11306E000007800CC00C000F800CC00CC007800FA
S11306F00000FC00CC00180018003000300030006E
S113070000007800CC00CC007800CC00CC0078004D
S113071000007800CC00CC007C000C00CC007800F9
S113072000000000000000000000000000000000C5
S11307300A0000000D000A0000000D000E000E006B
S10F07400A000D00080004001300FFFF75
S9030000FC
