S013000037536567446973706C61792E73726563E5
S113000045C0000073C00000B5C000005CC0000023
S11300105AC0000058C0000056C0000054C0000080
S113002052C0000050C000004EC000004CC0000090
S11300304AC0000048C0000046C0000044C00000A0
S113004042C0000040C000003EC000003CC00000B0
S11300503AC0000038C0000036C0000034C00000C0
S113006032C0000030C000002EC000002CC00000D0
S11300702AC0000028C0000026C0000024C00000E0
S113008022C0000020C000001EC0000011241FBEBA
S1130090CFEFD0E1DEBFCDBF11E0A0E0B1E0E4E1FD
S11300A0F2E000E00BBF02C007900D92A031B1074F
S11300B0D9F721E0A0E1B1E001C01D92A231B2075D
S11300C0E1F795D0A5C09CCF0895181619066CF4D5
S11300D020E030E0EFECF7E03197F1F700C00000EA
S11300E02F5F3F4F28173907A9F708951F920F92E2
S11300F00FB60F9211240BB60F922F933F934F9389
S11301005F936F937F938F939F93AF93BF93EF937B
S1130110FF938091100190911101893191052CF484
S11301200196909311018093100180911001909198
S113013011018F3091051CF089E788BB05C0FC01D3
S1130140E050FF4F808188BB86E990E0BEDFFF91DD
S1130150EF91BF91AF919F918F917F916F915F913B
S11301604F913F912F910F900BBE0F900FBE0F90A8
S11301701F9018951F920F920FB60F9211240BB671
S11301800F922F933F934F935F936F937F938F932C
S11301909F93AF93BF93EF93FF938091100190913E
S11301A01101181619062CF40197909311018093EC
S11301B01001E0911001F0911101E050FF4F808196
S11301C088BB86E990E081DFFF91EF91BF91AF9109
S11301D09F918F917F916F915F914F913F912F915B
S11301E00F900BBE0F900FBE0F901F9018956CDFF1
S11301F08FEF87BB11BAEAE6F0E080818F608083DD
S113020089B7836089BF789484EF91E05EDFFCCF87
S1070210F894FFCF8C
S11302143F065B4F666D7D077F6F777F0F5E797155
S9030000FC
